:08000000AC0504000000000043
:10040000851F7800C500200003000900B51F780093
:1004100000027800810278000203780083037800EC
:100420000000EB008000EB000001EB008001EB001E
:100430000800A10007F0A600080037000800A0008F
:100440008783EA000683EA008582EA000402EA0064
:10045000E0824A0060034B00E0834B008504720099
:1004600002003A008704730015003200394720006B
:100470000340A7000B0037004200A9000482D2000D
:100480008582D2000683D2008783D2000080D2000A
:100490008180D2000281D2008381D2008904E900E8
:1004A000F3FF3A00C44CDD004200A90009F0A100AE
:1004B0000340A10083816C000800A70003F0A000A6
:1004C0002501200003000900CF127800CF02780038
:1004D00000000600881F78002801200004000900A1
:1004E000B81F78008005EB006066B8000304780050
:1004F00087047800FA7F20004200A9004220A9006A
:1005000044C4DE00080465000800E0007100320009
:100510004200A9004220A900C4CCDE008904650085
:100520000900E0006B0032000884440009B0A70015
:1005300004003700F83FB100660032006500390062
:10054000030037001A402000854245006100310059
:10055000878669004200A9004220A900F300B2008A
:100560000340A000F700B2000740A000881F7800F9
:100570000124B800002DB8000A0544008B854C000A
:100580000C80B0000224B8008B0544000C864C009F
:10059000012CB8000005EB008B0544000C864C00D4
:1005A0000A80B0000034B8008B0544000C864C0073
:1005B0000A80B0008005EB000324B8000C0644005C
:1005C0000A854C000B80B000022CB8000C064400D9
:1005D0000A854C000B80B0000134B8000C064400C2
:1005E0000A854C000B80B000003CB8000C064400AB
:1005F0000A854C000B80B0000C0078000006EB0070
:10060000032CB8000A0544008B854C000C80B00018
:100610000234B8000A0544008B854C000C80B00001
:100620000334B8008B0544000C864C00013CB80034
:100630000A0544008B854C000C80B000023CB800D9
:100640008B0544000C864C00033CB8000C064400AB
:100650008A0078000B0178008C017800540020009B
:100660004200A9008381D3000281D3008180D3009E
:100670000080D3000402E900F9FF3A004F0478003B
:100680000804E80001037000010032000200370096
:1006900003037100080032000340A7000600370082
:1006A0004200A9000080D2008180D2000281D200E5
:1006B0008381D2000804E9004444DD0003F0A10076
:1006C0000DF0A70003F0A0000340A10083016C001F
:1006D000030037006000B8006001B8000000370078
:1006E000A8012000040009004F1478004F0478008E
:1006F00000000600881F780028012000040009007F
:10070000B81F7800080028004300AF0087036C0082
:100710000000E00007003A000100E00005003A0098
:100720000200E00003003A00FAFF27000A8561009A
:100730004220AE00030578008A856B000304780030
:100740008704780007067800FD7F20004220A9007A
:100750004200A90044C4DE00088466000800E000EE
:10076000BC0032004220A9004200A900C4CCDE0037
:10077000898466000900E000BE0032008006EB00BC
:100780004220A9004200A9000848E100BA00320056
:10079000C10033000D00A1000D10A000088454001A
:1007A000F300B2000340A000F700B2000740A00031
:1007B0004803B10016003B004803B0004220A900E6
:1007C0004200A9008381D3000281D3008180D3003D
:1007D0000080D3000804E900F8FF3A001400370055
:1007E0004803B1000F003B004803B0004220A900BD
:1007F0004200A9008783D3000683D3008582D300FB
:100800000482D3000804E900F8FF3A001B00370017
:1008100004007800850078000601780087017800E0
:100820000C866D000CF0A7000BF0A20079003700D9
:100830000BF0A6001F0037000D40A7008C057800C4
:100840000080EA008180EA000281EA0083C1EA00B8
:10085000F341B2000000E80005003A008100E80022
:1008600003003A000201E80001003A008341E80079
:100870000D40A700320037000E0037000BF0A60035
:100880000C0037000482EA008582EA000683EA0051
:1008900087C3EA00F741B2000402E80005003A000D
:1008A0008502E80003003A000603E80001003A0070
:1008B0008743E8004220A9004200A900040040004C
:1008C000858048000601490087C149000350A70000
:1008D0000D30A0000D00A700090037000D10A70083
:1008E000010037000B0037000BF0A70014003700A1
:1008F0000D30A700290037000D60A000210037004F
:100900000BF0A7000E0037000D30A70023003700C2
:100910001C0037000BF0A700040037008A057800A0
:100920000D30A7001D0037003A0037000D40A00031
:1009300003C1B2000340A700BFFF37008A0578005B
:10094000F301B2000284710002003A0000847000DA
:100950000C0032000340A7000A0037004220A90023
:100960004200A9000080D2008180D2000281D20022
:100970008381D2008904E9004220AF0032003700B1
:10098000F4FF37000D00A7008A0578000D10A700BE
:100990008C0578000D50A6001E0037004200A9000B
:1009A00083C1D3000281D3008180D3000080D300B3
:1009B0004200AF000D50A0008904E8004220AF00C3
:1009C000210037000D50A6000E0037000000E8009F
:1009D0000C003A008100E8000A003A000201E80039
:1009E00008003A008301E80006003A0083C1D30002
:1009F0000281D3008180D3000080D3008904E80005
:100A0000110032000D00A7008A0578000D10A70024
:100A10008C0578000102700002003A0003027100A8
:100A2000260032000340A1004220A9004200A90094
:100A3000C44CDD0083816C0003F0A0000BF0A60025
:100A400003F0A1001D0037006000B8006011B8007D
:100A50001A003700080028000AF0A70087036C007E
:100A6000850078000400780006017800870178008E
:100A70001200370011003700F700B2000740A00055
:100A8000F300B2000340A0000BF0A7000740A10054
:100A90000D20A00079FF3700F300B2000340A00052
:100AA000F700B2000740A000090454008904440084
:100AB0000D10A1000D00A00049FF3700A801200083
:100AC000040009004F1478004F047800000006006D
:100AD000851F7800861F78000302780003037800E2
:100AE0004200A90044A2DE00F57F200004826200DB
:100AF00003003A006000B8000001EB00130037006B
:100B00000438B100F300B200370020004200A90011
:100B10000080D2008180D2000281D2008381D20085
:100B20008703E900F9FF3A000100780082007800AD
:100B30000370A1000480FD004200A9000482D300DC
:100B400006F0A70004F0A00003016A004F0378003C
:100B5000CF027800000006000FFA2000F0FF20000E
:100B600020A0B7000000000081E0A8004427EF00AB
:100B70000A29EF00040028008411880004402000A6
:100B8000941188003062A80024022000C41188005B
:100B90008C69EF008D69EF008E69EF009029EF00FE
:100BA000E024EF00E224EF0061003700C0060800F7
:100BB0005A0000004BF03F005C0A5800F63B8F00E3
:100BC00000C03C008B28AC003CBEF6003FD2D500F4
:100BD00044168C0015D7BF0069005A002E1B8700F1
:100BE000993F9A005FAD4B0091E40100C05D110098
:100BF0002F92E40081FB3F0038DA9100809DC50010
:100C0000E0BF6F0012C0B400C309AB003F6BC1006E
:100C1000034EC100B545BF00F7400500FF005A0074
:100C2000EF3FF300A3E2F700D7FF010040C0B4009C
:100C3000FF053C0058FC3F003BD3C000B5BA8C0018
:100C4000E23F3900D3C73D004179B2003F870D0034
:100C50003C50D000AF623F00304B8D00A282AA0012
:100C600004400900A0404A000576030040EC9E00C5
:100C70003788A60044F03F008F128D00299A5B0050
:100C8000C73F0E00E0807C00A1D886003F294B00C2
:100C9000FB95C200371A3F00800909000C010100D2
:100CA00001000000FFFEFE00FF40050000002400E0
:100CB000FFFF00000203050005040100FCF8F50039
:100CC000F5F8FE00040A0D000D0A0400FEF8F50018
:100CD000F5F8FC00010405000503020000FFFF0019
:100CE000400500000009FF00FEFEFF0000000100BB
:100CF00001010000000000000201E8006110E100B5
:100D000004003A009101BA003182BA0006C0BF0067
:100D1000000006006210E10002003A0007C0BF00B8
:100D20000000060008C0BF000001EB000000060044
:100D3000060020000000200090018800605D200077
:100D4000800078000001EB007C060200000000003B
:100D50000BE0B7007C060200000000000AE0B700CC
:100D60000500E0001900320005F0A600070037007A
:100D70007C060200000000000DE0B7007C060200C7
:100D8000000000000CE0B70005F0A10005E0A6009F
:100D90000800370005E0A1008502E9007C0602009A
:100DA000000000008043780005800900075B7800A0
:100DB000E5FF37007C06020000000000005B7800C1
:100DC0008502E900FBFF3A00DFFF370014402000F6
:100DD000241A880004072800041A88001400200040
:100DE00004278800E224EF00E424EF004223EF0010
:100DF00024002800A4138800D40A28005412880074
:100E00000421EF0002A1EF0004002800240888005C
:100E10000021EF0004042000D44C8800D44C800052
:100E20006120E10006003D00C4942000D34C800006
:100E300084824100804AEB009A29ED00F7FF3700D9
:100E4000744C80000960EF00C394200083024200CC
:100E50004003A9004023A8004003AE00FEFF370076
:100E60000083BF004200DE00804A78008EC9BF00C8
:100E70008DE9B7009029EF008C69EF00644C800089
:100E8000F3032000041CE10019003600644C8000CC
:100E90004822DE00C3942000030042009042780004
:100EA000644C80000960EF00C39020000300420002
:100EB00000027800144078000B60EF000160EF0042
:100EC0000028B8000080FB009029B400644C80002A
:100ED0004822DE00F4C3B20002003A008D69EF0040
:100EE000010037008D69EC008C69EC00E3FF3700EE
:100EF0009089BF00010020000200200003002000B4
:100F0000000202000000000014A52F0025842C0020
:100F100096F72F00F7F723006A0202000000000096
:100F200080027800010378008203780003047800CF
:100F30004300A900851F7800861F7800871F78006E
:100F400005007800860078000701780088017800A5
:100F500004002000050020000600200007062400F1
:100F60007A03020000000000CF0378004F037800EE
:100F7000CF0278006805020000000000B14C880034
:100F8000C24C880096C9BF0076E2B7008E49E200E5
:100F900003003A00F0C3B3008EE9B7000100370048
:0C0FA0008E69ED00A6FF3700FFFF370050
:0200000401F009
:100000000F0000FF000000FF030000FFE10000FF01
:100010003B0000FF5F0000FF940000FF030000FFB3
:00000001FF
;PIC24FV16KM202
;CRC=D52A  CREATED="29-Oct-19 14:35"
